:100000000C9460070C948B070C948B070C948B0753
:100010000C948B070C948B070C948B070C948B0718
:100020000C94F5380C948B070C948B070C948B076D
:100030000C948B070C94D7280C948B070C948B078B
:100040000C948B070C948B070C948B070C948B07E8
:100050000C94CC380C94A2380C948B070C948B071E
:100060000C948B070C948B070C948B070C948B07C8
:100070000C948B070C948B070C948B070C948B07B8
:100080000C948B070C948B070C948B0704000200D4
:100090000004000400000407040400000404040039
:1000A0000000000000000400000000000400000246
:1000B000020000000204070004070704000000001B
:1000C0000404000404000004000202040404040404
:1000D00000000400040404040404040004000203F7
:1000E00004000404000400040000040004000000F4
:1000F000000000000001020102EB007D2C02000163
:10010000000000C32C0300010000003B3804000184
:100110000000003E380500010000008338060100A1
:1001200001290E631A070001000000D91A08010016
:1001300001EA00BD1A090001000000CA230A0201F9
:1001400001240E3A250B030103E700CB230C020127
:1001500002E500512C0D020002EB005D140E0200BE
:1001600002F60D62140F030003E700F314100200FF
:1001700002E500D51411050005E000E82312020095
:1001800002F60D222C13010001EA00042B140200D8
:1001900002E5002D1915020002F60DBA181604002A
:1001A00004DC00551917050005D700D71818010001
:1001B00001EA00D02A19080008CF005C2B1A0300BE
:1001C00003CC00422B1B020002F60D41271C02004B
:1001D00002E500EB261D040004110EA3271E0100FA
:1001E00001EA001F261F080008C400C931200200D0
:1001F00002E500312621040003F80DD1302203006E
:1002000002150E133323030002150E2333240400BA
:1002100004F20D2B3125010001EA00C9302603004C
:1002200003C100FB3027060006BB009A1328030019
:1002300003CC00DC1329050003B800812F2A040039
:1002400003B50023302B030002150E702F2C040081
:1002500004F20D76302D030003B200CE162E0300FB
:1002600003170EB41B2F060006AC002E1C30060030
:1002700006A600D71631010001EA00471632030036
:1002800003E700F51733020002F60D2816340300C9
:1002900002150EAE1035040004110EC725360300FA
:1002A00003CC00702537010001EA002C1038030050
:1002B00003E700A01239020002F60D0D103A030008
:1002C00002150E79113B030002150E0A123C0600BE
:1002D00006A60098113D030002150E081F3E0300FC
:1002E00002150E241F3F0800089E00401F40020018
:1002F00002F60D9D214105000599003222420400BD
:10030000041E0E6A1E43020002F60D961E440400EF
:100310000396003521450500059100D621460100D0
:1003200001EA005E2E47040003070E092F4805006E
:10033000058C00332F49040004F20D53284A0300B2
:1003400003C10085284B000100000096384C0005D1
:10035000000000000102030405060778DAA559E948
:100360006EDC46127E95CE00C66E16923007398737
:1003700016FE218D948590C8563C56BCC022205A4A
:1003800064CF4C43BCC226756CA0774F55575FE4D1
:100390008C9D60D78031CDEEAA3EEAF8EAD0EFA37B
:1003A000874EE659F2241A25AB528DCE47BB343D19
:1003B000677FFFD77AFD3D8BCFA2B3317B9065D7A6
:1003C000CA5CE1EC877B76693EBF67D3B3E9FC6C1E
:1003D0003A9ECCC793693C3A19A55551F032834DEA
:1003E0007E1FF13CAF52DE8AA492996269D595EDE9
:1003F000FB77E9E87C790227B62D1C95F0F491C1D2
:100400002A4C07EBF32820C8324B50574AFFC8F25A
:10041000FDBB8ED55D9E275D4D0C73CFF05B279A9B
:1004200057B7275CE011A91BA1DAA495E9A3A2AFF5
:10043000B6E1A52A649BD853992CE1FDE6FC18DEB1
:10044000910BDE246ADFB559F55C8ECEA7F8B47245
:100450002B7770A3977C16C5F60855CB8486A3F33B
:1004600078E2A94A9E57BB4496EEF6FADAA3F399CE
:10047000DFC95CD952D06712C861E148F5A468FAB7
:100480009BF564B0881C712677B2E5795275ED80D2
:10049000E189E79DC0EF4C6C7997B7899B28F84BB1
:1004A00092750D6FC102F43D27FE7001FA6CABBA74
:1004B000B757DA3B7C3A77C4FB2C8A16CBB1256E52
:1004C0005462CE167690456E14BBD1DC8D166E2428
:1004D00072FEEA9406E298B943E434B507C010040A
:1004E000496A055BC35FB019D03731455E2C45DDE5
:1004F000ADA6F13864748AF38F2D4555CB17910F53
:100500002497F196274AFE170ED877E00E6D8212D7
:100510000B2C4A0998926570DF85D774FD5C1CD15D
:1005200046FA0A56E6F730BAD87743EDC0CC817A5E
:10053000227F63B0C0E1C6E858AD7C12C95EEEF61A
:10054000FA85B365480FE6B9CBC5A10933B796B4B0
:10055000AFB520D9443D4EEB12C798CD5252A8DD1D
:10056000FB77FF000C98CD7ABCCFB2DD831892D414
:10057000DA3C5004EF6817ABA9534FEA0C47A5F9D2
:10058000A31BCBCC0D5FCB34E9DB084B8B2C393074
:100590009B717082A86BEF45F899186BCE646387E6
:1005A00084049AD85375B912C1A653FFB0762F9A16
:1005B000A20207AD8F4A345CF6428DFCA5DA22ED2B
:1005C00078E36CA379490EBC9BB56E122DAF95856F
:1005D000A0A7ADFC2E0DCAC38B15F6CFC44307F6FA
:1005E0005CD5A3F395FD825D76DA96493F1347D635
:1005F000080E40DB64A2C1F3D0830805A696E0B9DB
:1006000091AD38A040A32542803E51886627CAF4A8
:100610003541B8804BC0144147B2AF0A7100CA8A55
:100620001775E800E6DB41721FB4E1EA1EAEE8B9D7
:100630004EC68DDCED44838F50E81F8848B13F5C87
:100640008704B8136F8513D014AC7A2B01A4C1A50D
:100650001392214B9B94C47A32DA8137EB7B82FD73
:100660009B2F4D035E4D9F5D8D5A00459E8C0CE285
:10067000250ACE4BC0021DA0E398E43C9F0EC85053
:100680000596CCAB630E4244582AAA4C6E5F13D039
:10069000B5DBAB11DAA598894B70035C25B6C8B001
:1006A000910EFBF43897E4C280C694088D2E87C75C
:1006B00047A0309989B285C359B5DDC229DAA95C52
:1006C0004082732C3CEA6738692EC6C14A57675E80
:1006D000D214B5F75D70CC02B621950C42E9F168F1
:1006E0000D1A180F18B42E3B0F22D1CA110CC3EEED
:1006F000FF686C85373683BEFE0B52871D30EE4592
:10070000FA1804EB997BD52056BB1BD415F8F3F0EF
:10071000FC205CCCEC068340F555B1CC070C43B112
:10072000C4B1253880FCAF244668D380F0724B6F8B
:100730008ADD958E81DC57F60844D7931C7D00B87E
:1007400082CF65A1E048799D3896B7B833AA30B218
:100750004E62CB3208AC8EDC690B8C636E8911C99A
:100760005DF4471511785903DFEBCC017E25C003FA
:10077000788A8EE9A097D80C353FA1C2F03C600082
:100780001B459AF00D83A40BEE3D3B20D22FD08960
:1007900080DBB3971500D39C984AF162AE00B1CAD2
:1007A00039AF6C08CE264464E5F127190648055E8A
:1007B00015047B4C87B7DE66BDB3C653A20BDC3D88
:1007C000589D4576B5C5242C0C7F26270328134158
:1007D0006E062C73CFA2AA6DFBCC1B11F2165255DC
:1007E00036D8159592C7B280834DA3256DFAF5775B
:1007F000CCF0BD3AC1F8164EC7AB3ED571988EF11C
:10080000344A25128C050071121333E7789395272B
:10081000D01108AD97621473212B0860C0015B9A58
:1008200044A0276A8DD40EC8A92A4052E24619A2D4
:10083000CB1EF100308980AE0D130C51578D896E9F
:10084000E4BDFADB198978A925A8248CA52BB7D398
:10085000E0152111044642FE637E1CF840F46693C5
:1008600016AC112FAED6C9EDC5BF3115C19CEAF249
:100870007E93DCDD7CD82062411D7A77393FB9BB9D
:100880008CE1FF62142CB6CF7A713D3EB95B4F60AC
:1008900061FDD3C7F58FC90F9FAE7F467719EB7FF8
:1008A00027A3DBF53D50F1B6103B3E992EA31A2845
:1008B000EFBEDCD2715304C74FD7EBEB9B5FAE9317
:1008C0002F371FAE3E7E41BD4D717273FD0926E983
:1008D0001AA2913CC7C3AEE0B02B3C0C566F2E7EE3
:1008E0004A2E2FEEAF701B3A6BF3F9E2F326D9DCF8
:1008F000DF6E7E8695CD35AECCDF3005E92029D27E
:1009000069BB2E894DB58243FD8831D08051E3F714
:10091000DDC57874FE9FF1C9F257B8E6258E97348D
:100920005EE31850407F5CE107242FCB5FDF7A0E37
:100930000C89A52EB927B3D90CB63D1971158FA313
:1009400045A683769B8B18EAF307B895E13277D0FA
:1009500052C63B60E49068280D248889CC8C6A9844
:1009600056E196421E957917395AE22BB3C9534680
:10097000B0B6E6252BAB96814932746B064844F03D
:10098000C3B465B1E7BD843159886235D8389C4419
:10099000B869793B2574046A266C5B350C74F54F95
:1009A000FB2D15AE667A5E4F294A0B80F56F2DC27E
:1009B0003654063BB810A4DBBC456A6EAE497510D0
:1009C000E583865821291A2665AD34AB115E6F0D7B
:1009D000371525B3A582E307CB58536F83D5BC01E8
:1009E000BB60A269AA46278476A111106854AB3B6C
:1009F0001C3F70786FC6DA8A697FC68A55BB2105AD
:100A0000A41B0A83CCB6007C4782A2110196A532B2
:100A10004D159D8BFA3920C3ABF0424028A392C4F8
:100A20002E16D593B0B76158B5A2DFF96557E3BA72
:100A3000AA962A92837593CAB9F331565B22102085
:100A400023B3C322C1CE62316ABD1B21219837195D
:100A500048BA97B5619C457D02504157FB37290A3A
:100A60005396A2978304BB203CDDF217B4D3A5159F
:100A7000281596B74229BE130C6A128818566120B1
:100A8000FE5BA9D09A1424715997634D04CC186069
:100A900099C12E6DF8E249A02630B67E9D61CF9BAC
:100AA0004C1BBBA1C6FECE2D8A5FE71C0C46CD3683
:100AB000AF9E2969F90056CE193D07DD4BBB3EB606
:100AC00028C205B07B5AC07652B820CB9A423B650B
:100AD000F27AA9C49BFAE999863867FD7553ED400F
:100AE00098055C9DE3DBB6101BE196206C818E8B34
:100AF00079F327611E85C68A9E05C7A0A8410D68A7
:100B0000C9585B6C1CC18174D8B3CC73081929EC2B
:100B1000D76B525010F49C4E42DFE0C0147A035E53
:100B2000483AD417400A5974859DB3CE013ADCD8AF
:100B300046842E896033EDB71A83C2AEDDC63872A3
:100B40005B556CCBF5EBE86558017E0E4D0A45060A
:100B500084BAF542E1F3B396077242B4544257B4F3
:100B6000F7A5EA6A8C98829C5A2329E61F5F789B36
:100B7000EEB36A4752FC8E5227DD02855AA12B1F25
:100B800061634404EAAC05F3CA2FC0ABC847003226
:100B900014201D7A30C462A8FA14E937E8A710605F
:100BA00055650E18F7041BF087DC42977BFE4A97C9
:100BB0007BCCA408D4341AD497E7EC23802744A92B
:100BC000078CEA5BEC2FA8EFA87FA0BBB60E474DC1
:100BD0002F37A3A681C22AB1048420934961591BEF
:100BE00094CB6234B468D1E5BCC1D8810DA823F997
:100BF00001EA8BAC1B9B43066EC977302B82D07405
:100C0000D040C1D804317C3659C6B10E75E663AE0A
:100C1000631D7DCC63AD7CF898CF17309EBDBDE9D8
:100C20002CBE066C10D49C36A56498E22944CC32C4
:100C30001583827505523F5A79FA7AC3544936872B
:100C4000A25C3DDCEDA1D3BEA7B9B6725BE16F2E0D
:100C5000830E3426E5987EB80AB6D7B0A01D8F95CE
:100C600037CBA09BDEE3E04179CAF40ABDE614F17C
:100C700092AA189F2C2E5DE71A82A7E975E807EA69
:100C80009608CE59ABD2393AA05A78EFA5EE74EA5D
:100C9000AAF75BB7361C6690F8D34F31B1B07D2808
:100CA00005EEE7DA4ACBC8B7717A3BEF2BA833776A
:100CB0008767845D22609FFBCE4862D5EF9357FA29
:100CC000364A9EF8E64740EABA20640E67480A268C
:100CD0001708840D732792C9027CCDD6E57FC1C663
:100CE0004ED1E38ED6F1FF9791758746763A0BDBAE
:100CF0003846DEF6725D9AEACE798A4A8117801408
:100D0000C27EE1120B588FBBB6B5725C00CB30418E
:100D1000FD4B2298861C4115143280A68E96AE0794
:100D2000EA0DDB13A19EA37EA9F82766B1D4A51C0A
:100D3000009ACE5617734A9595B765D515E647FDC7
:100D4000467D9CA0F81B5486D40C83947B190F70AD
:100D5000ADAF86A3CEDE5164D2BA598D7DB9787815
:100D60007F2C14C9D37B25A0779E94BB7AF468FBB3
:100D70003404065DD6E9BC98FE96D0858B583A9827
:100D80003F1B428DF4343E9B4CCEC6A793E5F274D4
:100D9000F730597011C7DBD1DB1FE7928C66430A2D
:100DA000000020002300260029000B4700440045D6
:100DB0000080010C48004400450020011D8800808F
:100DC00000810080001C8A008000810020001FB389
:100DD00000B000B10080031EB400B000B1002003D9
:100DE0000E98009000910080000F9A0090009100F2
:100DF00020000400000004040404070400000204AE
:100E000000020402040007040207040000020404B4
:100E100002040000040407040002040404000404A3
:100E200000040401070400040200000000000000A8
:100E300006000202661704F20D650A02F60D644010
:100E400002150E634003F80D624003070E611F0791
:100E5000FB0D604003070E5F0B02020E5E400304B1
:100E60000E5D4003070E5C1C070A0E5B4002150E68
:100E70005A1404110E594002150E581003170E573C
:100E800011041A0E5611041E0E550D02220E540B9B
:100E900001290E534001240E521204250E510B015C
:100EA000290E5010022A0E4F15032C0E0040022F5F
:100EB0000E4E0E02310E4D0901330E4C060000009D
:100EC00011241FBECFEFD0E4DEBFCDBF14BE0FB6DE
:100ED000F894A895809160008861809360001092DA
:100EE00060000FBE11E0A0E0B1E0E8E5F3E700E04C
:100EF0000BBF02C007900D92AA32B107D9F722E0CA
:100F0000AAE2B1E001C01D92A639B207E1F70E9442
:100F1000082A0C94AA390C940000CF93DF93CDB724
:100F2000DEB769970FB6F894DEBF0FBECDBF0E9443
:100F3000F5296B017C019E012F5F3F4F1901AE0126
:100F4000475F5F4F5E874D8780912601882309F4B4
:100F5000ADC50E94F529C61AD70AE80AF90AF8941D
:100F600080912601882351F08FEF80932601789499
:100F70000000F894809126018111F9CF78940E94A5
:100F8000F529A7019601260F371F481F591F2B8BE4
:100F90003C8B4D8B5E8B81E08093260180914D01CF
:100FA000882309F43EC010924D018FEF89836FE1D1
:100FB00076E2C1010E94081B8C01892B91F1D801B6
:100FC00056968C9182FFF3CF0E94F529F894F80190
:100FD00037892689422F4B7F468B78949F938F9336
:100FE0007F936F931F923F9321701F922F9389815C
:100FF0001F928F932FE73EE03F932F930E9475330C
:101000006DB77EB7645F7F4F0FB6F8947EBF0FBE9B
:101010006DBF6FE176E2C1010E94081B8C01892B34
:1010200071F680914E018823F9F010924E018FEFF6
:10103000898361E376E2C1010E94081BFC01892BD0
:1010400099F0958D868D9813F4CFF894858D968DB3
:10105000891709F414C6789461E376E2C1010E940D
:10106000081BFC01892B69F780913801882309F45A
:1010700050C0109238018FEF8B879E01255F3F4F44
:1010800029016CED73E1C2010E94081B5C01892BF0
:1010900009F43FC0D50159968C91599780FFF1CF43
:1010A000F894F5016480758086809780818D8E7FAD
:1010B000818F789458968C91813009F43FC408F45C
:1010C0001FC4823009F4DFC38330D9F6CB84198280
:1010D0001A82910142E061E0F501848995890E94BC
:1010E000193209811A81102701271027F02FF67075
:1010F000EF2E20E030E0B401A301C5010E940514E9
:101100006CED73E1C2010E94081B5C01892B09F0A0
:10111000C1CF809139018823B1F1109239018FEF4D
:101120008B879E01255F3F4F290152E0D52E6DE24E
:10113000E62E78E0F72E68E276E1C2010E94081BF5
:101140008C01892B01F1D80152968C9182FFF3CF4B
:1011500080FFF2C0C8010E947D35F801D28AE98281
:10116000FA82910142E060E0848595850E941932FF
:10117000C8010E941E1768E276E1C2010E94081BA6
:101180008C01892B01F780914C01882309F45EC002
:1011900010924C018FEF8B879E01255F3F4F2901F5
:1011A00077247A9460E775E2C2010E94081B8C01E3
:1011B000892B09F44BC0D80150968C9182FFF2CF55
:1011C000F894F80184809580A680B780F488108A0E
:1011D000148A789480859185A285B385881A990AA6
:1011E000AA0ABB0AD801FF2091F052968C91F8010F
:1011F000E80FF11D758A168A178A8D5FF801828BB8
:101200008E3208F093C0FA94D801F110EECF5196C7
:101210008C91882309F4D8C2813009F4BBC3823091
:1012200009F4D9C4D80152968C9190E08E970CF4B1
:10123000B9CF6B85C8010E94A12560E775E2C201A4
:101240000E94081B8C01892B09F0B5CF80913701D2
:10125000882309F4BEC0109237018FEF8C8730E3EA
:10126000632E42E0742E53E2952E6AE6C62E74E099
:10127000872EE0E44E2E6DE070E1CE010C960E94C8
:10128000081B7C01892B09F4A4C0F701868982FF21
:10129000F2CF80FF56C0C7010E947D35D701569618
:1012A0007C92569799821A821C96ED91FC911D971B
:1012B000A10162E080810E94211DC9828A82D7013A
:1012C0001C96ED91FC911D97A10162E080810E9426
:1012D000211DC9824A82D7011C96ED91FC911D9770
:1012E000A10162E080810E94211DBAE3BB87D70182
:1012F0001C96ED91FC911D97810121E0AE01455FA7
:101300005F4F61E080810E94971C9982B8E0BA83A8
:10131000D7011C96ED91FC911D97A10162E080819F
:101320000E94211DC7010E945B12A5CF6B85C801D9
:101330000E94A125FA9468CF6B85C8010E943D17D1
:10134000FACE5C84F7010789D62CD01AAD2CB12CCB
:10135000848995898A159B0508F46EC3B4E7B9831F
:1013600010E0085E1F4F0E0D1F1DD7011C96ED915A
:10137000FC911D972D2DA10161E080810E94971C99
:10138000F7018789D80ED78A848995898A199B099C
:10139000958B848B652DC7010E947A12D7015496D4
:1013A0008D919C915597A816B90608F4A6C3F7012C
:1013B000868981FF60CFC7010E947D35D70156968F
:1013C0008C9156978B7F56968C93C7010E945B1227
:1013D00052CF80914A018823E9F010924A018FEFA1
:1013E000898303E41EE066E97EE1C1010E94081BD7
:1013F000009781F0FC01208D2F3FA9F7F8942685F6
:101400002111FCC2789466E97EE1C1010E94081BAB
:10141000009781F780914B018823D9F110924B01FD
:101420008FEF89830EE31EE066ED71E2C1010E9439
:10143000081B009771F1DC011E962C911E9723FF6B
:10144000F3CFF894FC012685277F268778949C01AA
:10145000265E3F4F3F932F9350968C9186958695AD
:1014600086951F928F9389811F928F931F930F935D
:101470000E947533EDB7FEB738960FB6F894FEBFED
:101480000FBEEDBF66ED71E2C1010E94081B00971F
:1014900091F680914F01882309F446C010924F01C4
:1014A0008FEF898304E31EE065E878E2C1010E94C2
:1014B000081BFC01892BC1F1848D80FFF5CFF894C6
:1014C0009481258136814781548965897689A789E8
:1014D000B08DF18CE28CD38C848D8E7F848F789448
:1014E000DF92EF92FF92BF93AF937F936F935F93DF
:1014F0004F933F932F939F9389811F928F931F93B5
:101500000F930E9475332DB73EB7205F3F4F0FB644
:10151000F8943EBF0FBE2DBF65E878E2C1010E947E
:10152000081BFC01892B41F6A89580917201882344
:1015300029F080E4809360001092720110913302D0
:10154000112309F46DC000912A0100FD12C015306D
:1015500008F466C0B0907301CB2C8BEF8B0D8C33ED
:1015600008F4D1C2EEE7CE1609F43EC40160009340
:101570002A01412F50E06EE770E083E791E00E947E
:101580007B39009739F00E7F00932A0183579140F1
:1015900011E0180F01FD0CC0902F926090932A016A
:1015A0008EE493E09F938F930E9475330F900F907A
:1015B000B12EDD24DA9480E0EB2CF12C18C090E001
:1015C000402F50E0481B590BB701680F791F6D5829
:1015D0007E4F8D589E4F0E94913910922601802F88
:1015E0009FB7F89420913302121761F09FBF1091BA
:1015F0003302012F0B1919F79FB7F894209133028A
:101600001213F4CF009333029FBFF1E0DF1208C042
:101610008EE493E09F938F930E9475330F900F9009
:101620000E94F5296B017C012B893C894D895E89DB
:10163000621B730B840B950B8090330190903401E7
:10164000A0903501B09036013FEF831A930AA30AA8
:10165000B30A8092330190923401A0923501B09286
:10166000360140902F015090300160903101709010
:101670003201460E571E681E791E40922F0150926D
:10168000300160923101709232016115710541E0C3
:101690008407910508F00FC29B01AC010E9400393C
:1016A000DC01CB0181509F4FAF4FBF4F892F9A2F45
:1016B000AB2FBB2740912B0150912C0160912D0144
:1016C00070912E01840F951FA61FB71F84179507D1
:1016D000A607B70718F48FEF9FEFDC0180932B016B
:1016E00090932C01A0932D01B0932E0140916E0197
:1016F00050916F0160917001709171015C546B4366
:101700007B4F2F2DC416D506E606270B27FD1CCCD4
:10171000BF93AF939F938F937F926F925F924F92FD
:10172000BF92AF929F928F9287EA9EE09F938F9392
:101730000E9475336DB77EB7625F7F4F0FB6F89426
:101740007EBF0FBE6DBF80916E0190916F01A09121
:101750007001B0917101C816D906EA06FB0698F42B
:1017600080916A0190916B01A0916C01B0916D0123
:101770000196A11DB11D80936A0190936B01A09306
:101780006C01B0936D01C0926E01D0926F01E09236
:101790007001F092710110922B0110922C011092A5
:1017A0002D0110922E0110922F01109230011092F3
:1017B00031011092320110923301109234011092D3
:1017C000350110923601C0CB82E389831A820E94D0
:1017D000F5296B017C01910142E061E0F80184850B
:1017E00095850E9419320E94F529DC01CB018C19E4
:1017F0009D09AE09BF0981329340A105B10508F0EA
:10180000EFC0998197FD49C1C818D908EA08FB08BB
:10181000D80153968C918823C1F02FEF280F41E017
:1018200050E002C0440F551F2A95E2F7052E000C28
:10183000660B770BC40ED51EE61EF71E04C0F69489
:10184000E794D794C7948A95D2F7BFEFCB16D1040B
:10185000E104F10408F085C12A8130E0220F331F32
:10186000892F90E0982F8827990F822B932BF801CE
:101870002289E20FF11DC58A868B978B2D5FD801D7
:1018800052962C93CFCCCB8481E089831A821B8221
:101890001C82910143E061E0848995890E9419329C
:1018A00069817A818B819C810E941039BB27A92F85
:1018B000982F872F9C01AD01442755272F87388B00
:1018C000498B5A8B37E039831A82910142E061E0FB
:1018D000D50154968D919C9155970E9419328A8119
:1018E000982F9C7F8F858170E92EE82A0F851889B3
:1018F00029893A89B401A301C5010E940514C1CB0D
:10190000CB8419821A821B821C82910144E061E01F
:10191000F501848995890E94193269817A818B81C8
:101920009C810E941039F62FF770EF2E8B019C01DD
:10193000B401A301C5010E940514A3CB2B852F87F9
:101940003CE039831A821B821C82910144E061E0F1
:10195000848995890E94193269817A818B819C8161
:101960000E9410396B017C01BFE0B9831A8291019A
:1019700042E061E0F501848995890E94193297015E
:1019800086013327CF84EA80B401A301C5010E94F8
:10199000051477CB8FE789838EEF8A830E94F52920
:1019A0006F87788B898B9A8B910142E060E0F80118
:1019B000848595850E9419320E94F5296B017C016E
:1019C000DC01CB012F85388949895A89821B930B09
:1019D000A40BB50B81329340A105B10508F4CEC02C
:1019E000D80152968C91F801E80FF11D758A92E0AA
:1019F000968B178A8D5FF801828B14CCFC01318D98
:101A0000308F7894AC01415F5F4F5F934F931F928B
:101A10002F9387891F928F9389811F928F931F9392
:101A20000F930E947533EDB7FEB73A960FB6F89450
:101A3000FEBF0FBEEDBFD7CCB7016E5E7F4F848572
:101A400095850E9429129C01ABEABAEA0E941739D7
:101A500096958795969587959C01220F331F820F47
:101A6000931F880F991FD70155969C938E93549777
:101A70008A159B0508F497CC57960C916FCC2D8551
:101A80003E85E217F30709F0EAC0809590E02A85C9
:101A900030E08217930709F413C1D80152968C9154
:101AA000F801E80FF11D758A93E0A2CFCB8ADC8A9A
:101AB000ED8AFE8A70CA6115710550E185079105AE
:101AC00008F009CE8B019C0101501F4F2F4F3F4F53
:101AD0005527432F322F212F0E940039DC01CB01E3
:101AE00040912B0150912C0160912D0170912E019C
:101AF000840F951FA61FB71FE9CD10922601B1E0F4
:101B0000B0933701B8CBD09074018D2D807F803198
:101B100009F028CD1B1508F483CD8B2D90E0FC0136
:101B2000EE58FE4F20812E3709F01CCDAC014059F4
:101B30005E4F4A01FC01EF58FE4F9081DA018C9113
:101B4000292F30E07901F82A6DEF6B0D83E791E0E2
:101B50000E940B2AE816F90609F448C1C0907301E7
:101B600001CDF8018289E80FF11D758A91E0968B0D
:101B7000178A8D5FD80152968C9354CB80EC898361
:101B80001A82910142E061E0D8011C968D919C91EE
:101B90001D970E94193249812A81942F9227892FFB
:101BA00082958F709827892F869586958927982FFB
:101BB0009695892780FD98C046FFA6C0F8018289C6
:101BC000E80FF11D758A25E0268B178A8D5FD801F5
:101BD00052968C9327CBD8011C96ED91FC911D97C2
:101BE0006480B281BF8723812F8B40E06B2F722FDF
:101BF000862D0E94A51D0E94F5296B017C0130E114
:101C0000C30ED11CE11CF11C0E94F5292F2DC61614
:101C1000D706E806290B27FFF7CFF89441E06F8538
:101C20007F89862D0E94A51D0E94F5296B017C01EC
:101C30007894D101EAE01D92EA95E9F7F4E8F98396
:101C400023E22A8391014AE061E0D8011C968D913C
:101C50009C911D970E941932FE01339685E0919167
:101C6000892728E030E005C0880F2150310909F4A8
:101C700006CF87FFF9CF880FBDE18B27F6CF5489B8
:101C8000658990892189328943898F5F858F78940E
:101C90006F935F934F933F932F939F9389811F92ED
:101CA0008F938AE79EE09F938F930E947533EDB7E1
:101CB000FEB73A960FB6F894FEBF0FBEEDBFB9C996
:101CC000898584FF18C08B8187FD60C0D80152963A
:101CD0008C91F801E80FF11D758AB4E0B68B178A74
:101CE0008D5FF801828B9ECAF8018289E80FF11D91
:101CF000758A93E03CCFD80152968C91F801E80F99
:101D0000F11D758AB5E0EACFC818D908EA08FB08C2
:101D1000F80133893323C9F08FEF830F61E070E05E
:101D200002C0660F771F8A95E2F7CB01092E000CDF
:101D3000AA0BBB0BC80ED91EEA1EFB1E04C0F694EC
:101D4000E794D794C7943A95D2F77FEFC716D1049A
:101D5000E104F10408F03FC0842F90E0AC01542F5F
:101D60004427550F550FF4E02F9FC0011124842BF9
:101D7000952BD80152962C91F801E20FF11DC58ADE
:101D8000868B978B2D5FF801228B4CCAC818D90817
:101D9000EA08FB08F1E5CF16F5E5DF06E104F104FA
:101DA000D0F42C8130E0220F331F90E0982F882749
:101DB000990F822B932BD80152963C91F801E30F97
:101DC000F11D2F8126952F73258B868B978B3D5F79
:101DD000F801328B27CAD80152968C91F801E80F8E
:101DE000F11D758A91E004CE11E0E2CB802F8D7F4A
:101DF00080932A0180910901D81202C181E08D0DE2
:101E00008F70806180930901B5E78B16B1E09B0666
:101E100009F008F4BEC0E5E7F1E0B98ECDB6DEB654
:101E20008F010F5F1F4F2081222309F4E6C0EDE4EC
:101E3000F3E08491281708F0E0C030E0220F331F50
:101E4000220F331F220F331FF901E251FF4FE4919C
:101E50004DB75EB764E0E69F4019510911240FB6F3
:101E6000F8945EBF0FBE4DBF8DB79EB70196F901C6
:101E7000E051FF4F4491F901EF50FF4F659174918C
:101E8000FB01640F711DAC01D88ACF86988F8F8BB0
:101E90006E177F0709F482C08016910608F46EC0A1
:101EA000A491A53028F1A73009F068C02801BFEF40
:101EB0004B1A5B0AD801AC9082010A0D111D8016E5
:101EC000910608F45BC0B12CC12CD12CDA01AD9283
:101ED000BD92CD92DC921397612C712C14964D9289
:101EE0005D926D927C921797485F5F4F3196D0CF8D
:101EF0007A0184E0E80EF11C68019FEFC91AD90A43
:101F0000D8011C91912F9F77492E512C612C712C57
:101F1000012F00760036A9F117FF3EC086010F5F42
:101F20001F4FD80111978C91440C551C661C771CCF
:101F3000440C551C661C771C440C551C661C771CF5
:101F4000440C551C661C771C440C551C661C771CE5
:101F5000440C551C661C771C440C551C661C771CD5
:101F6000982F9F77492A87FDDACFDA014D925D924B
:101F70006D927C921397A70131968ACF87E00E94D9
:101F80003438B0EE4B2A55245A94652C762CC4CFA5
:101F9000B98CDD24D3940FCB8601E7CFCF84D888CA
:101FA0008F89988D40912701442331F0F901E15147
:101FB000FF4FE491E0FF11C02D503F4FF9012591F3
:101FC0003491F90109950FB6F894DEBE0FBECDBE6F
:101FD00008151905E8F6F80121CF809128011F9214
:101FE0008F93E6EBFEE0FF93EF930E9475330FB6FD
:101FF000F894DEBE0FBECDBEEBCF85E00E94343834
:102000001B2DCECAFC0196899460968B10922601F6
:1020100081E08093370180E008950F931F93CF9361
:10202000DF938C0148E450E06DE070E1FC018081B9
:102030000E94D22CEC0182E090E19B838A8366E7C8
:1020400070E3F80184810E94012D9D878C87DF91C8
:10205000CF911F910F9108954F925F926F927F924F
:102060008F929F92AF92BF92CF92DF92EF92FF92A8
:102070000F931F93CF93DF9300D01F92CDB7DEB79E
:102080006C016DE070E1DC018C910E94012D7C01FE
:102090000E94F5294B015C0182E78B83D7011C96D6
:1020A000ED91FC911D978E010F5F1F4F22E0AE0155
:1020B0004D5F5F4F61E080810E94971C0E94F5296F
:1020C0002B013C0189818F718983F70181898F936D
:1020D00080898F9324893589ABEABAEA0E9417393F
:1020E00096958795969587959F938F9387891F924D
:1020F0008F9387858F9386858F93D301C20188192B
:102100009909AA09BB09BF93AF939F938F93BF927D
:10211000AF929F928F92D6018C911F928F938DE4F4
:102120009EE09F938F930E9475330FB6F894DEBFA5
:102130000FBECDBF0F900F900F90DF91CF911F91E9
:102140000F91FF90EF90DF90CF90BF90AF909F9056
:102150008F907F906F905F904F9008957F928F92B5
:102160009F92AF92BF92CF92DF92EF92FF920F9326
:102170001F93CF93DF937C01DC01DC9160E775E274
:102180008D2F0E94012D8C01F701C481B084A184A0
:10219000DC0151969C90B2E09B1609F44FC00E945E
:1021A000F5296B017C012B2D3A2D4C2F61E0D801D4
:1021B0001C968D919C911D970E9419320E94F529C1
:1021C0008B019C010C191D092E093F090132134096
:1021D0002105310558F54C2F50E0E1E09E1659F1EC
:1021E000AF92BF925F934F93FF92EF92DF92CF92A5
:1021F0001F92DF938CE59EE09F938F930E9475332F
:102200008DB79EB70C960FB6F8949EBF0FBE8DBFCC
:10221000DF91CF911F910F91FF90EF90DF90CF90C2
:10222000BF90AF909F908F907F90089540E050E0D6
:10223000E1E09E12D5CF6B017C01D2CFDC011C9670
:10224000ED91FC911D9794808280738040E0682D11
:10225000772D892D0E94A51D0E94F5296B017C0117
:10226000B0E1CB0ED11CE11CF11C0E94F5292F2DF1
:10227000C616D706E806290B27FFF7CFF89441E0EA
:10228000682D772D892D0E94A51D0E94F5296B01CF
:102290007C0178942B2D3A2D4C2F61E0F801848538
:1022A00095850E9419324C2F50E09ACFCF93DF933F
:1022B000DC011C96ED91FC911D971E969C911E973A
:1022C0001F96CD91DC91509751962C9188E005C0D6
:1022D0009083660F9083815049F067FFF9CF288380
:1022E00060959083660F90838150B9F7DF91CF910D
:1022F00008950F931F93CF93DF93EC0168E971E189
:1023000088810E94012D8C016AEF0E9456116C8118
:10231000611105C0DF91CF911F910F9108954885FC
:102320005985C801DF91CF911F910F910C94AE1F79
:10233000CF92DF92EF92FF920F931F93CF93DF9391
:102340008C0142E150E068E971E1FC0180810E946A
:10235000D22CEC0160E0F80180850E94A3286C87F4
:102360007D878E8760E0F80184850E94A3286F87AF
:10237000788B898B61E0F80184810E94A32868EF43
:10238000CE010E94561160E2CE010E945611F894CF
:102390000E94F5296B017C0160E0CE010E9456117C
:1023A0000E94F5297894688379838A839B83DC0172
:1023B000CB018C199D09AE09BF09F801C088D188ED
:1023C000E288F3888C159D05AE05BF0540F4C81A58
:1023D000D90AEA0AFB0ACC82DD82EE82FF82F8018A
:1023E000048915892689378980179107A207B307C1
:1023F00040F4081B190B2A0B3B0B088719872A8707
:102400003B87DF91CF911F910F91FF90EF90DF906D
:10241000CF9008950F931F93CF93DF93EC0168E95A
:1024200071E188810E94012D8C0168EF0E94561194
:102430006C81611105C0DF91CF911F910F910895BB
:1024400048855985C801DF91CF911F910F910C9458
:10245000AE1FEF92FF920F931F93CF93DF9300D0A5
:102460001F92CDB7DEB77B0122E72B838E010F5F72
:102470001F4F22E0AE014D5F5F4F61E0FC018081A4
:102480000E94971C89818F7190E0982F88272A815C
:10249000822BF701208131812817390710F49183AD
:1024A00080830F900F900F90DF91CF911F910F912C
:1024B000FF90EF9008950F931F93CF93DF93EC015C
:1024C000F8940E94F529088519852A853B85DC0149
:1024D000CB01800F911FA21FB31F8C839D83AE83FE
:1024E000BF83CE010E94CF357894DF91CF911F91A9
:1024F0000F910895CF93DF93EC0148969F938F93AC
:102500008F891F928F938F858F938E858F931F92C4
:102510006F9388E49EE09F938F930E9475331F8A88
:102520008E859F8501969F878E878DB79EB70A9669
:102530000FB6F8949EBF0FBE8DBFDF91CF91089567
:102540004F925F926F927F928F929F92AF92BF92C3
:10255000DF92EF92FF920F931F93CF93DF9300D000
:1025600000D0CDB7DEB78C01DC01DC906DE070E10E
:102570008D2D0E94012D7C01F80180859185A28519
:10258000B385892B8A2B8B2BC9F1C7010E947D351E
:10259000F80184819581A681B781F70184839583B1
:1025A000A683B783F80180859185A285B385F7015D
:1025B00080879187A287B38781E0868B17861686EE
:1025C000118A108A178A138A128A158A148AC701F7
:1025D0000E94CF350F900F900F900F90DF91CF9109
:1025E0001F910F91FF90EF90DF90BF90AF909F9061
:1025F0008F907F906F905F904F900895C7010E94D9
:102600007D35D70156961C9283E289831A820E94F7
:10261000F5294B015C01D7011C96ED91FC911D97AA
:10262000AE014F5F5F4F62E080810E94211D0E94DA
:10263000F5292B013C018AE38C83D7011C96ED918F
:10264000FC911D978E010D5F1F4F21E0AE014C5F85
:102650005F4F61E080810E94971C8B8184FD48C0A0
:10266000D70157968C91882321F06D2DC7010E94C8
:102670007A12B7016E5E7F4FF701848595850E94BF
:102680002912D70151962C9151972F9350962C9146
:102690002F939C01ABEABAEA0E9417399695879569
:1026A000969587959F938F93F70187891F928F93B4
:1026B00087858F9386858F93D301C20188199909E5
:1026C000AA09BB09BF93AF939F938F93BF92AF9219
:1026D0009F928F921F92DF928DE49EE09F938F9343
:1026E0000E9475330FB6F894DEBF0FBECDBF72CF18
:1026F000F701808991890196918B808BB1CFFC0184
:102700001092260181E080933801818D8160818F54
:10271000448155816681778180859185A285B385C5
:10272000840F951FA61FB71F84839583A683B78345
:1027300081E008950F931F93CF93DF938C016CED8D
:1027400073E1FC0180810E94012DEC010E947D3526
:10275000F80184819581A681B7818C839D83AE83A6
:10276000BF8380859185A285B38588879987AA874D
:10277000BB87892B8A2B8B2B29F4DF91CF911F915B
:102780000F91089584859585A685B7858C879D874B
:10279000AE87BF8780899189A289B389888B998BFD
:1027A000AA8BBB8B84898E8B1F8ACE01DF91CF9140
:1027B0001F910F910C94CF35FF920F931F93CF93DE
:1027C000DF93EC01F88483E08F15E0F04AE150E0FC
:1027D0006CED73E188810E94D22C8C018FE793E12C
:1027E000F801938382836BEF70E38C810E94012D4B
:1027F000F801958B848BF08EDF91CF911F910F9113
:10280000FF9008958DE10E9434388F929F92AF928D
:10281000BF92CF92EF920F931F93CF93DF93EC0170
:10282000480159011F92EF92BF92AF929F920F936E
:102830007F936F935F934F931F92CF9280E79EE0B9
:102840009F938F930E9475338DB79EB70E960FB6E8
:10285000F8949EBF0FBE8DBFE11009C08C859D8589
:10286000AE85BF8588169906AA06BB0688F48F89AF
:102870008F5F8F8B9E898917B0F4DF91CF911F9165
:102880000F91EF90CF90BF90AF909F908F90089551
:1028900088899989AA89BB8988159905AA05BB05E4
:1028A00030F31F8AEACF809127018111FACF8CE1A2
:1028B0000E9434388BE10E943438FC0164818081AD
:1028C0000C94A3288F929F92AF92BF92FF920F9386
:1028D0001F93CF93DF938C0168EE73E2FC0180813C
:1028E0000E94012DEC010E947D358F8D98A1892BCE
:1028F00009F058C0F80104811BA1FF24F3940023C0
:1029000039F16C897D898E894F2D0E94A51D21E0AA
:1029100001111CC014FB882780F991E08927281732
:1029200041F08F89988DA98DBA8D892B8A2B8B2B9D
:1029300089F410711F291BA3DF91CF911F910F9173
:10294000FF90BF90AF909F908F90089520E0E2CFCE
:10295000F12CD7CF0E94F5298F88988CA98CBA8C3E
:10296000DC01CB01880D991DAA1DBB1D888B998B9D
:10297000AA8BBB8B8C839D83AE83BF8382E394E25F
:102980009B838A83107114601F291BA3CE01DF91E2
:10299000CF911F910F91FF90BF90AF909F908F901C
:1029A0000C94CF3582E10E943438CF93DF93EC0151
:1029B00068EE73E288810E94012DF894FC01278D56
:1029C00030A1232B69F44C815D816E817F81FC01F4
:1029D000438F548F658F768F7894DF91CF910895D0
:1029E00084E10E943438CF92DF92EF92FF920F93EE
:1029F0001F93CF93DF938C0168EE73E2DC018C911F
:102A00000E94012DEC010E947D2DFC01D80114963D
:102A1000CD90DD90ED90FC901797C282D382E48236
:102A2000F58218964D915D916D917C911B9746832F
:102A3000578360877187F894118210828F8D98A1D7
:102A4000892B81F0A9A1BAA1ED93FC93FAA3E9A384
:102A50007894DF91CF911F910F91FF90EF90DF90CD
:102A6000CF900895FAA3E9A3F8A3EF8F8BA182FD7D
:102A700025C0C88AD98AEA8AFB8A982F94609BA3CA
:102A800081FD10C0CE010E947D35CC82DD82EE82B8
:102A9000FF8282E394E29B838A83CE010E94CF353A
:102AA0007894D7CF4C815D816E817F81872F4C15C3
:102AB0005D056E058F0987FFE5CFF2CF48895989FB
:102AC0006A897B89972F4C155D056E059F0997FFD5
:102AD000D0CF83E10E943438CF92DF92EF92FF9201
:102AE000CF93DF93FC01A4A1B5A1109761F41686E2
:102AF0001786108A118A80E0DF91CF91FF90EF90C6
:102B0000DF90CF9008958D919C91119795A384A308
:102B100016968D919C911797958784871296CD90E4
:102B2000DD90ED90FC901597AC01092E000C660B22
:102B3000770B4C0D5D1D6E1D7F1D40875187628791
:102B4000738724A524FD43C042895389648975890C
:102B5000C40ED51EE61EF71EC28AD38AE48AF58A01
:102B6000C482D582E682F78218968D919C9119973E
:102B7000AC0160E070E0440F551F661F771F468769
:102B80005787608B718B1A962C911A9720FD3FC046
:102B900040A151A162A173A1480F591F611D711D70
:102BA00040A351A362A373A380914801909149016E
:102BB00011969C938E93B0934901A093480181E0B4
:102BC000DF91CF91FF90EF90DF90CF9008954481F7
:102BD000558166817781C40ED51EE61EF71EC4821C
:102BE000D582E682F782892B31F1206224A71896DC
:102BF0008D919C911997AC0160E070E046875787F2
:102C0000608B718B1A962C911A9720FFC1CFAC0163
:102C100060E070E0C0A0D1A0E2A0F3A04C195D0973
:102C20006E097F0940A351A362A373A3C58DD68DFE
:102C3000878D8883B9CF2F7DD9CFFC01928994608D
:102C4000928B1092260181E08093390180E00895F3
:102C50000F931F93CF93DF938C0146E450E068E21B
:102C600076E1FC0180810E94D22CEC018DE196E19D
:102C70009B838A836BEF70E3F80184810E94012DAE
:102C80009D878C87DF91CF911F910F9108958F922F
:102C90009F92AF92BF92EF92FF920F931F93CF93A9
:102CA000DF9300D0CDB7DEB77C0168E276E1FC01AE
:102CB00080810E94012D8C0189EB89831A820E94F8
:102CC000F5294B015C019E012F5F3F4F42E061E01F
:102CD000F801848595850E9419320E94F529F80132
:102CE00021892F9320892F932A811F922F93238943
:102CF0001F922F9327852F9326852F93DC01CB01DD
:102D000088199909AA09BB09BF93AF939F938F9321
:102D1000BF92AF929F928F92F70180811F928F9303
:102D200086E69EE09F938F930E9475330FB6F894CA
:102D3000DEBF0FBECDBF0F900F90DF91CF911F91DF
:102D40000F91FF90EF90BF90AF909F908F9008955C
:102D5000CF93DF93EC0144969F938F938B891F92BF
:102D60008F938F858F938E858F931F926F9381E6BC
:102D70009EE09F938F930E9475331B8A8E859F855B
:102D800001969F878E878DB79EB70A960FB6F894E7
:102D90009EBF0FBE8DBFDF91CF910895FC0144818E
:102DA000558166817781208580810C94912DDF92F9
:102DB000EF92FF920F931F93CF93DF93EC01D8888C
:102DC00083E08D15B0F16BEF70E388810E94012DD7
:102DD0007C018AE090E00E9452338C0161E08C819A
:102DE0000E946C1DF80160837183828360E0888596
:102DF0000E94A328F80163837483858360E08C8537
:102E00000E94A328F801668377838087D186F70123
:102E10008581982F967081F4F70111830083826079
:102E20008583DF91CF911F910F91FF90EF90DF90FD
:102E300008958BE10E9434380E945A140F931F9317
:102E4000CF93DF93EC01F8940E94F529088519854A
:102E50002A853B85DC01CB01800F911FA21FB31F88
:102E60008C839D83AE83BF83CE010E94CF3578943F
:102E7000DF91CF911F910F910895DF92EF92FF9212
:102E80000F931F93CF93DF93CDB7DEB729970FB67C
:102E9000F894DEBF0FBECDBF8C01F62E9E012F5FD2
:102EA0003F4F89E0F90111928A95E9F782EF898312
:102EB00049E061E0F801848595850E941932F801A6
:102EC000838990E09C012C5E3F4FE20FF31F3B8112
:102ED000232F207F21F1203F11F12FEF2483238323
:102EE00022832183F801E80FF91F248BF8018389DD
:102EF0008B5F838B8E3208F05EC0F801828981FD82
:102F00004FC029960FB6F894DEBF0FBECDBFDF913C
:102F1000CF911F910F91FF90EF90DF9008954D8119
:102F2000242F207FC9F52F81522F507F11F0503F61
:102F3000A1F65885503989F659855F77E52E50E21C
:102F40005E1558F2D801A80FB91F5A8154965C93A8
:102F50008C8181838E818283822F90E03F71BC01BE
:102F6000660F771F62957295707F7627607F762750
:102F7000362B3383880F991F880F991F80764F71E6
:102F8000482B4483F80183898B5F838B4EEFD42ECB
:102F9000DE0C8E32B8F012C0203F09F09ECFC3CFB6
:102FA000C8010E947D35F80182898B7F828BC80120
:102FB0000E941E17A6CF8EEFD82EE12C6F2DC801D0
:102FC0000E94A816FEE1FE1530F4F801808991896F
:102FD0000196918B808BFEE1FD1508F48ECF109247
:102FE000260181E0809339018CCF4F925F926F92DE
:102FF0007F928F929F92AF92BF92DF92EF92FF9259
:103000000F931F93CF93DF9300D0CDB7DEB77C0132
:10301000FC01D08068E276E18D2D0E94012D8C01AB
:10302000F70180859185A285B385892B8A2B8B2B0F
:1030300099F1C8010E947D35F70184819581A681AF
:10304000B781F80184839583A683B783F7018085D0
:103050009185A285B385F80180879187A287B38780
:1030600081E0828B118A108A17861686138AC8011E
:103070000E94CF350F900F90DF91CF911F910F914C
:10308000FF90EF90DF90BF90AF909F908F907F90D8
:103090006F905F904F900895C8010E947D35F801B0
:1030A000128A8DE289831A820E94F5294B015C0104
:1030B0009E012F5F3F4F42E060E0F80184859585D7
:1030C0000E9419320E94F5292B013C0181E2F82E61
:1030D00099EBE92E03C0FA94FF20C1F0E9821A822D
:1030E0009E012F5F3F4F42E061E0F80184859585A6
:1030F0000E9419328A818F7749F0813260F76D2DF5
:10310000C8010E943D17FA94F110E8CFF8018389B5
:10311000882331F06D2DC8010E94A816F80183891B
:10312000F80191899F9390899F939A811F929F9311
:103130001F928F9387858F9386858F93D301C201CA
:1031400088199909AA09BB09BF93AF939F938F93DD
:10315000BF92AF929F928F921F92DF9286E69EE07F
:103160009F938F930E9475330FB6F894DEBF0FBE06
:10317000CDBF80CFCF93DF93EC0167ED78E18881FD
:103180000E94012DFC018C819D81AE81BF81892B24
:103190008A2B8B2B51F420E0F89494A59D7F922BE1
:1031A00094A77894DF91CF91089522E0F5CF0F9303
:1031B0001F93CF93DF938C014DE250E067ED78E1F0
:1031C000FC0180810E94D22CEC01F8018485181644
:1031D0000CF041C064E06CA7F80184810E94A32830
:1031E0006A8F7B8F8C8F60E0F80180850E94A32816
:1031F0006D8F7E8F8F8F80E090E0A0E0B0EC88A391
:1032000099A3AAA3BBA3F80180899189A289B38954
:103210008E8B9F8BA88FB98F6BE070E0CE01849668
:103220000E94632D8E899F89A88DB98D8997A105EC
:10323000B10548F081EE99E19B838A83DF91CF91BC
:103240001F910F9108958CA580618CA7DF91CF917C
:103250001F910F91089560E0BECFCF93DF93EC01F3
:1032600067ED78E188810E94012DFC018C819D81B0
:10327000AE81BF81F8944685578560897189452B59
:10328000462B472B79F484839583A683B783828B5F
:10329000938BA48BB58B84A5877F84A77894DF91CB
:1032A000CF91089586E10E9434380F931F93CF93F6
:1032B000DF938C0167ED78E1DC018C910E94012D98
:1032C000EC010E947D2DFC01D80114964D915D9179
:1032D0006D917C911797428353836483758318960D
:1032E0008D919C91199791878087892B09F466C0ED
:1032F000D8011C968D919C911D9797838683128689
:10330000F8948CA5282F217081FB992790F9291713
:1033100029F091E089279285916092874E855F859B
:1033200068897989452B462B472B59F583FD19C0B0
:103330008CA7118210828CA19DA1892BA9F1AEA12D
:10334000BFA1ED93FC93FFA3EEA3CE010E946C15E9
:10335000CE010E94CF357894DF91CF911F910F91CC
:103360000895809148019091490191838083F09361
:103370004901E09348017894DF91CF911F910F911B
:1033800008958CA7118210828CA19DA1892B89F0B0
:10339000AEA1BFA1ED93FC93FFA3EEA37894DF91C0
:1033A000CF911F910F910895FFA3EEA3FDA3ECA36E
:1033B000CCCFFFA3EEA3FDA3ECA3CDCF87E10E946A
:1033C0003438CF92DF92EF92FF920F931F93CF93F7
:1033D000DF93EC01EA8DFB8D8C8D80830E94F529B3
:1033E0000E891F89288D398D6B017C01C00ED11E7D
:1033F000E21EF31E8E859F85A889B9890197A109D0
:10340000B1098E879F87A88BB98B80FF0EC0CC82B5
:10341000DD82EE82FF8281E0DF91CF911F910F91DB
:10342000FF90EF90DF90CF900895892B8A2B8B2B04
:1034300059F1488559856A857B858A899B89AC893C
:10344000BD89840F951FA61FB71F8A8B9B8BAC8BE2
:10345000BD8B0C851D85012E000C220B330B400FFC
:10346000511F621F731F488759876A877B872B2FDD
:103470008C159D05AE052F0927FDC9CF8C839D8333
:10348000AE83BF8381E0C8CFCE010E946C1581114D
:1034900002C080E0C1CF4C815D816E817F81972F1A
:1034A0004C155D056E059F0997FFB6CF4C195D0958
:1034B0006E097F094038514C6F4F7F4F0CF0A7CFFA
:1034C00088E10E9434380F931F93CF93DF938C01D0
:1034D0008091420190914301892B09F04BC060918A
:1034E000410170E0623071052CF482E0809341016B
:1034F00062E070E0E0913D01F0913E014DB75EB7B2
:1035000041505F4F44275A959F01C0E0D0E0C90168
:10351000860F971F4817590730F121969C01C11556
:10352000A4E0DA07A1F78E1B9F0B0E945233D093C1
:103530004301C09342019093400180933F010E9458
:10354000192DF80180819181A281B381809344017A
:1035500090934501A0934601B0934701DF91CF912D
:103560001F910F910895209711F0C901DCCF80E1E0
:103570000E9434388DE00E943438CF9320913B0173
:1035800030913C01232B91F4FC01C0818C2F90E001
:10359000880F991F880F991F0E94523390933C0106
:1035A00080933B01C0933A01CF9108958AE00E9435
:1035B000343880914201909143019F938F9321E091
:1035C00030912701311101C020E01F922F932091EB
:1035D00047012F93209146012F93209145012F936E
:1035E000209144012F9321E0892B09F420E01F92C0
:1035F0002F9388E99EE09F938F930E9475338DB738
:103600009EB70C960FB6F8949EBF0FBE8DBF08955F
:10361000CF93DF93EC01988140913A01A0913B0157
:10362000B0913C010BC0FD0184E0989FE00DF11DBD
:103630001124208131812617370741F09F5F9417AD
:1036400090F380E090E0DF91CF910895988382819C
:103650009381DF91CF91089580E20E9434380F93D7
:103660001F93CF93DF93FC01A189B2898D919C9127
:103670001197928B818B16968D919C911797C0858F
:10368000D185228521113FC02FB7F894AC01552771
:10369000598348832FBF20914801309149011196E9
:1036A0003C932E93B0934901A0934801A189B2891C
:1036B000109759F5278530898217930741F0838544
:1036C0009485A585B6850097A105B10531F480E004
:1036D000DF91CF911F910F910895448155816681AB
:1036E0007781840F951FA61FB71F84839583A683B8
:1036F000B7838CE29BE19383828381E0DF91CF915A
:103700001F910F9108958883C6CF12964D915D91B8
:103710006D917C911597278530898217930741F029
:1037200083859485A585B6850097A105B10551F4DB
:10373000448355836683778381E0DF91CF911F9126
:103740000F9108950481158126813781800F911F83
:10375000A21FB31F2B2F84179507A607270B27FF40
:10376000E7CF8FE10E943438EF92FF920F931F93BF
:10377000CF93DF937C016EE27CE1DC018C910E94AF
:10378000012D8C010E947D2DEC01F7018481958132
:10379000A681B7818A839B83AC83BD838085918515
:1037A0009F838E83F89419821882D80151968D9147
:1037B0009C915297892BB9F15396ED91FC915497B6
:1037C000D183C0835496DC93CE93539780E090E0EE
:1037D0007894892B39F4DF91CF911F910F91FF904D
:1037E000EF900895C8010E947D35D80112968D9101
:1037F0009C9113978C529B41F1F08A819B81AC8103
:10380000BD812FE23BE1F8013383228384839583DA
:10381000A683B783C801DF91CF911F910F91FF90CD
:10382000EF900C94CF35F801D48BC38BD28BC18B26
:1038300081E090E0CDCF8A819B81AC81BD81F80190
:103840004481558166817781272F481759076A0778
:103850002B0B27FFD6CF8FE10E943438CF92DF9217
:10386000EF92CF93DF93EC01488559856A857B857C
:103870002C858C810E94912D6B01E82E45E150E052
:103880006EE27CE188810E94D22CFC01C086D18648
:10389000E28688899989908B87878C899D89AE89F2
:1038A000BF8983879487A587B6878FE29BE193833F
:1038B000828368E070E0CF014196DF91CF91EF9075
:1038C000DF90CF900C94632DCF92DF92EF92FF9216
:1038D0006B017C0109C00E94F529292F6C157D051B
:1038E0008E052F0927FF09C08091BC0087FFF3CF09
:1038F000FF90EF90DF90CF9008958FE20E943438D0
:1039000024EA2093BC000E94641C8091B90090E0DE
:10391000A0E0B0E080319105A105B10521F0089744
:10392000A105B10509F408958EE20E9434387F9212
:103930008F929F92AF92BF92CF92DF92EF92FF92BF
:103940000F931F93CF93DF93782EC62F942EB52E0F
:10395000822E0E94F5296B017C0120E8C20E28E32B
:10396000D21E21E0E21EF11CC701B6010E94801C9C
:103970007092BB0084E88093BC00C701B6010E942E
:10398000641CAA24AA94AC0ECC23B1F0C92DDB2D63
:10399000B12C8FEFA81AB80AAC0EBD1E94E8992E70
:1039A00089918093BB009092BC00C701B6010E9430
:1039B000641CAC16BD06A1F7C701B6010E94801CAD
:1039C000872D81608093BB0084E88093BC00C70191
:1039D000B6010E94641CDFEFD80D882009F1580160
:1039E000CD2F84EC982ECC2369F09092BC00C701B7
:1039F000B6010E94641C8091BB00F50181935F01B8
:103A0000C15099F7F801ED0FF11DEF0184E88093A3
:103A1000BC00C701B6010E94641C8091BB00888372
:103A200084E98093BC00DF91CF911F910F91FF90AB
:103A3000EF90DF90CF90BF90AF909F908F907F904E
:103A40000895BF92CF92DF92EF92FF920F931F9350
:103A5000CF93DF93D82FC62FB42E152F0E94F529B0
:103A60006B017C0120E8C20E28E3D21E21E0E21E99
:103A7000F11CC701B6010E94801CD093BB0084E8F2
:103A80008093BC00C701B6010E94641C0FEF0C0FAD
:103A9000CC23A9F0CB2DD12F10E00F5F1F4F0C0FBF
:103AA0001D1F84E8B82E89918093BB00B092BC00A2
:103AB000C701B6010E94641CC017D107A1F784E9B1
:103AC0008093BC00DF91CF911F910F91FF90EF90F9
:103AD000DF90CF90BF9008958032A0F567FD32C08F
:103AE000E82FE695E695E695F0E0EE0FFF1FEE5520
:103AF000F24FA591B491109729F1877021E030E041
:103B0000A90102C0440F551F8A95E2F7CA014FB7B9
:103B1000F89412963C911297662381F0382B282F47
:103B2000209512963C93129711963C91119723235E
:103B300011962C9311974FBFBD010895282F209502
:103B40003223EFCF8AE20E943438FB012FB7F8947A
:103B50009281411105C08095892382832FBF0895EA
:103B6000892B82832FBF0895CF93DF93EC016A8D59
:103B7000662309F453C0FC0150E031E020E0A38D3E
:103B8000B48D4C91958D942309F0532B2F5F330FF7
:103B900033962613F4CF2C85922F952729F08D8507
:103BA000852780959823D9F4888D5D8787FD03C08C
:103BB000815070F1888F4C815D816E817F81888515
:103BC0009985AA85BB85840F951FA61FB71F8C8377
:103BD0009D83AE83BF8381E0DF91CF910895982FBD
:103BE000909529238523822B8C879E859830E0F63B
:103BF00021E0290F2E87FE01E90FF11D8787109222
:103C0000260181E080934A018FEF888F5D87D3CFB3
:103C10001092260191E090934A01CCCF50E0BBCFA7
:103C2000AF92BF92DF92EF92FF920F931F93CF93C9
:103C3000DF93FC01A485B585968547855089E18889
:103C400022893389F488A588B6887789008D118DFB
:103C5000D28C808586279C9384FD20C085FD22C060
:103C600086FD24C087FD26C09C93862F8295807F89
:103C7000808768279C9364FD2AC065FD25C066FD8A
:103C80001CC067FD1EC09C93DF91CF911F910F91C7
:103C9000FF90EF90DF90BF90AF900895EA01E88227
:103CA00085FFDECFE901F88286FFDCCFE50178836E
:103CB00087FFDACFE801D882D7CFF501708367FF9D
:103CC000E2CFE801D882DFCFE901F882D8CFFA014C
:103CD000E082D3CF0F931F93CF93DF938C0166E9DC
:103CE0007EE1DC018C910E94012DFC01D80114962B
:103CF0009C91828D9817B8F4292F30E0E901CC0F00
:103D0000DD1F2C0F3D1FEF01C20FD31FF80164858B
:103D100080850E946C1D6B8F7C8F8D8FDF91CF9182
:103D20001F910F91089584E20E943438CF93FC01D3
:103D3000C481C930B8F44C2F50E09A01220F331FD0
:103D4000420F531F455E5F4F66E97EE1FC018081B3
:103D50000E94D22CFC01C28F24EB3DE133832283ED
:103D6000CF91089585E20E9434385F926F927F92DE
:103D70008F929F92AF92BF92CF92DF92EF92FF927B
:103D80000F931F93CF93DF938C01FC01C080D180F0
:103D9000E280F38084809580A680B78066246A9450
:103DA000660E662301F1EA01712CFFEF6F1A7F0A9C
:103DB000640E751E59900E94F529DC01CB018C1907
:103DC0009D09AE09BF0988159905AA05BB0598F399
:103DD000652DC8010E94101E0E94F5296B017C010F
:103DE000C615D70539F7F801C082D182E282F38285
:103DF000DF91CF911F910F91FF90EF90DF90CF90C7
:103E0000BF90AF909F908F907F906F905F9008953C
:103E10000F931F93CF93DF93EC0160E47FE18881E0
:103E20000E94012D8C01FC0161857285838541E032
:103E30000E94A51D488559856C81C801DF91CF91ED
:103E40001F910F910C94B51E0F931F93CF93DF9387
:103E5000EC0160E47FE188810E94012D8C01FC016E
:103E600061857285838540E00E94A51D488559853E
:103E70006C81C801DF91CF911F910F910C94B51EF9
:103E8000CF92DF92EF92FF920F931F93CF93DF9326
:103E9000EC014BE150E060E47FE188810E94D22C8C
:103EA0008C0160E08C810E94A328F80161877287F1
:103EB000838760E088850E94A328F801648775875E
:103EC000868760E08C850E94A328F8016787708B45
:103ED000818B60E088890E94A328F801628B738B34
:103EE000848B60E08C890E94A328F801658B768B17
:103EF000878B60E0888D0E94A328F801608F718F06
:103F0000828FF8940E94F5296B017C0160E0C80162
:103F10000E94101E0E94F5297894DC01CB018C19B7
:103F20009D09AE09BF09CC8CDD8CEE8CFF8C8C1505
:103F30009D05AE05BF0548F4C81AD90AEA0AFB0A6E
:103F4000F801C482D582E682F782DF91CF911F917A
:103F50000F91FF90EF90DF90CF9008954F925F9276
:103F60006F927F928F929F92AF92BF92CF92DF9289
:103F7000EF92FF920F931F93CF93DF938C01562EF6
:103F80003A01FC0180809180A280B380C480D580FA
:103F9000E680F780EA012196FA014080642D607F77
:103FA0000E9456110E94F529DC01CB01881999095C
:103FB000AA09BB098C159D05AE05BF0598F3642DB4
:103FC0006295607FC8010E9456110E94F5296B011D
:103FD0007C01F80180849184A284B384F1E05F16AF
:103FE00039F15A945A94852D90E00296680E791E04
:103FF0005990652D607FC8010E9456110E94F529D5
:10400000DC01CB018C199D09AE09BF098815990502
:10401000AA05BB0598F3652D6295607FC8010E94D3
:1040200056110E94F5296B017C01C615D70501F7D1
:10403000F801C082D182E282F382DF91CF911F9199
:104040000F91FF90EF90DF90CF90BF90AF909F9037
:104050008F907F906F905F904F900895CF92DF92F6
:10406000EF92FF92CF93DF93FC01A085B18582850B
:104070008C93968581E089278687C82FC170C68872
:10408000D788E08CF18C97859F5FD1899D1708F0C8
:104090005FC0892F869586958695DF01A80FB11D93
:1040A0005A962C9130E0892F877002C0359527955C
:1040B0008A95E2F72170B701A601C217A9F033C0B3
:1040C000892F869586958695DF01A80FB11D5A9692
:1040D0002C9130E0892F877002C0359527958A95FD
:1040E000E2F72170C2131FC04C0D5D1D6E1D7F1DB8
:1040F0009F5F9D1728F389E293E2938382838481F3
:104100009581A681B781480F591F6A1F7B1F448381
:1041100055836683778381E0DF91CF91FF90EF90A5
:10412000DF90CF900895978784819581A681B7818C
:10413000480F591F6A1F7B1F44835583668377830B
:1041400081E0DF91CF91FF90EF90DF90CF900895C5
:10415000B701A601D0CFCF92DF92EF92FF920F93DB
:104160001F93CF93DF93EC01E885F9858A858083DF
:104170000E94F5293E8521E023272E872F852F5F7A
:104180002F87213009F45CC02530E0F40C811D81BB
:104190002E813F814A895B896C897D89DB01CA0157
:1041A000800F911FA21FB31F8C839D83AE83BF839B
:1041B00081E0DF91CF911F910F91FF90EF90DF9001
:1041C000CF900895CC80DD80EE80FF80AB01BC01F4
:1041D0004C195D096E097F098E899F89A88DB98D5B
:1041E000481B590B6A0B7B0BDB01CA010296A11D10
:1041F000B11DB7FD34C0B595A79597958795B59531
:10420000A795979587950A891B892C893D89800FE9
:10421000911FA21FB31F8E8B9F8BA88FB98F2EE289
:1042200030E23B832A834C0D5D1D6E1D7F1D840F84
:10423000951FA61FB71F8C839D83AE83BF83B8CF06
:104240000C811D812E813F81AB01BC01401B510BB4
:10425000620B730B4E8B5F8B688F798F9BCFDB016B
:10426000CA010596A11DB11DC6CFEF92FF920F9313
:104270001F93CF93DF937C0166ED71E2FC01808197
:104280000E94012DEC011E8511FF07C0DF91CF9127
:104290001F910F91FF90EF900895F70104816085C1
:1042A0007185F4840B3008F045C0FAE0FF1508F47E
:1042B00041C0402F50E04A960E9488391F861173F2
:1042C00012601E87802F880F880F880F898BFF0C44
:1042D000FF0CFF0CF88A002349F08A8D8F738A3215
:1042E00029F48BEA90E29B838A830CC08A899B899C
:1042F000AC89BD898E8B9F8BA88FB98F8EE290E29F
:104300009B838A83F8940E94F529DC01CB018058B5
:10431000934FAF4FBF4F8C839D83AE83BF83CE013E
:104320000E94CF357894DF91CF911F910F91FF902C
:10433000EF90089586E20E9434380F931F93CF9335
:10434000DF938C0166E97EE1DC018C910E94012DF6
:10435000EC01D8011496EC918F898E0F8F8BF89415
:104360008E85E817D0F48E1BF0E03F96EC0FFD1F12
:10437000DE011F962FEF280F30E0205F3F4F2C0FFC
:104380003D1F91919D93A217B307D9F78E8778941B
:10439000DF91CF911F910F9108951E868EEF888F28
:1043A0007894DF91CF911F910F9108957F928F9212
:1043B0009F92AF92BF92CF92DF92EF92FF920F93B4
:1043C0001F93CF93DF93EC0144E250E066ED71E27E
:1043D00088810E94D22C8C0178848C809D80AE8054
:1043E000BF80CC84DD84EE84FF8461E0711001C065
:1043F00060E0882D0E946C1DF801638774878587B3
:1044000061E08C2D0E94A328F80160877187828764
:1044100088899989AA89BB89828B938BA48BB58B58
:10442000711018C091E08C149D04AE04BF04C1F05B
:1044300080E0892BF8018687DF91CF911F910F9142
:10444000FF90EF90DF90CF90BF90AF909F908F90B4
:104450007F90089591E18C149D04AE04BF0441F750
:1044600080E2E7CF0F931F93CF93DF938C0166E930
:104470007EE1FC0180810E94012DEC010E947D35CE
:10448000F80184819581A681B7818C839D83AE8359
:10449000BF834085518562857385488759876A87C0
:1044A0007B8780898D878C871E861F8A8EEF888FF9
:1044B0008485898F87FD10C0452B462B472B29F417
:1044C000DF91CF911F910F910895CE01DF91CF9190
:1044D0001F910F910C94CF3583E20E943438CF9313
:1044E000DF93EC018E8585FD0DC0688579858A8511
:1044F00041E00E94A51D8E85807381608E87DF91CB
:10450000CF910895E885F9858A852FB7F89492812F
:10451000982B92839181892B81832FBF8E85807305
:1045200081608E87DF91CF910895CF93DF93FC0157
:10453000A385B4855C918785982F977021E030E042
:1045400001C0220F9A95EAF7982F96959695969521
:10455000DF01A90FB11D5A969C915A9745854523B5
:10456000E1F0292B5A962C938F5F90898917E8F4F4
:104570008787448155816681778186899789A08D57
:10458000B18D840F951FA61FB71F84839583A683C3
:10459000B78381E0DF91CF910895209529235A9622
:1045A0002C938F5F9089891718F3EF01CF010E9438
:1045B0006F228E8588608E871092260181E080931D
:1045C0004B0180E0DF91CF910895CF93DF93FC0101
:1045D000A385B4859C9185858923E9F086858460CF
:1045E0008687878591E0980F9787803408F5448106
:1045F00055816681778186899789A08DB18D840FD9
:10460000951FA61FB71F84839583A683B78381E078
:10461000DF91CF910895868582FFE3CF178685E9E4
:1046200092E293838283CF01DF91CF910C94952204
:10463000EF01108ACF010E946F228E8588608E87DD
:104640001092260181E080934B0180E0DF91CF91B1
:1046500008950F931F93CF93FC01C089CC23E9F1F8
:10466000868585FD23C0178685EE92E2938382833B
:1046700086899789A08DB18D880F991FAA1FBB1FAE
:10468000880F991FAA1FBB1F4481558166817781BE
:10469000840F951FA61FB71F84839583A683B783B6
:1046A000C1E08C2FCF911F910F910895A385B48500
:1046B00095852FB7F89484FF21C012968C9112979C
:1046C000892B909512968C93129711968C91119735
:1046D000982311969C932FBFC6CF8C010E946F2206
:1046E000F8018685886086871092260181E0809394
:1046F0004B018C2FCF911F910F91089512968C91A1
:10470000129790958923DECF0F931F93FC01A48904
:10471000B58986898C9393A181E0892783A34481FD
:1047200055816681778180FF12C0008511852285C1
:104730003385400F511F621F731F82FD12C04483D7
:1047400055836683778381E01F910F9108950485D7
:10475000158526853785400F511F621F731F82FF05
:10476000EECF0089118922893389872F401751079D
:104770006207830B87FDE3CF82E394E29383828316
:10478000B901A801448355836683778381E01F9133
:104790000F9108950895FC018081A481B581408521
:1047A0005185628573859FB7F894813061F08230BE
:1047B00019F04C939FBF08954D935D936D937C9337
:1047C00013979FBF089511965C934E939FBF0895D2
:1047D000CF92DF92EF92CF93DF93EC0161E0888577
:1047E0009985AA85BB85892B8A2B8B2B09F460E0E0
:1047F0008C810E94A3286B01E82E44E250E068EE11
:1048000073E288810E94D22CFC01C48AD58AE68A90
:1048100021E0488559856A857B85452B462B472BAA
:1048200009F420E04C855D856E857F85452B462B00
:10483000472BB1F430E0232BFC0123A3488959898D
:104840006A897B89478B508F618F728F6AE070E035
:104850004F96DF91CF91EF90DF90CF900C94632D26
:1048600030E1E9CF8F929F92AF92BF92CF92DF92C9
:10487000EF92FF921F93CF93DF93EC01EF8CF8A0A0
:10488000E114F10409F4F0C0F7018081918198A34B
:104890008F8F86809780A084B18411E08114910469
:1048A000A104B10409F4A1C06C897D898E89412FCE
:1048B0000E94A51D8091480190914901F7019183C3
:1048C0008083F0924901E092480181149104A1048F
:1048D000B104E9F08B8D9C8DAD8DBE8D8816990647
:1048E000AA06BB06A0F44F89588D698D7A8D4115B3
:1048F00051056105710509F45BC08C819D81AE8114
:10490000BF81480F591F6A1F7B1F166022C08BA1F1
:1049100031E081149104A104B10409F068C084FB62
:10492000992790F921E09227391709F443C04F895C
:10493000588D698D7A8D4115510561057105D1F14B
:104940008C819D81AE81BF81480F591F6A1F7B1FDB
:104950001460EF8DF8A1309709F077C02BA1488B38
:10496000598B6A8B7B8B2071212B2BA311FF5FC08E
:10497000880D991DAA1DBB1D12FD52C024E833E20B
:104980003B832A838C839D83AE83BF8388869986ED
:10499000AA86BB868B8D9C8DAD8DBE8D881999099D
:1049A000AA09BB098C879D87AE87BF8781E011C0AC
:1049B00012608BA1EF8DF8A13097D9F4188A198A6B
:1049C0001A8A1B8A8071812B8BA3812F827011FD23
:1049D00034C0DF91CF911F91FF90EF90DF90CF9087
:1049E000BF90AF909F908F90089510E05DCF30E022
:1049F00096CF4281538164817581488B598B6A8B34
:104A00007B8B8071912F9460892B8BA311FF0FC03A
:104A10008C819D81AE81BF81880D991DAA1DBB1D12
:104A20002B2F84179507A607270B27FDA7CF4C83AD
:104A30005D836E837F8381E0CCCF40E050E0BA019C
:104A40008C819D81AE81BF8193CFC280D380E48071
:104A5000F580872F4C155D056E058F0987FD07C012
:104A60008BA1B701A601C9CF85E10E94343883E14B
:104A70000E943438FC0185818F9384818F938081DB
:104A80001F928F9383E99EE09F938F930E947533CB
:104A90000F900F900F900F900F900F900895FC01C2
:104AA000808982FD19C08460808B1092260181E08C
:104AB00080934C0144815581668177818085918501
:104AC000A285B385840F951FA61FB71F8483958386
:104AD000A683B78381E0089584898F5F848BE5CFB7
:104AE000FF920F931F93CF93DF93EC01F88483E041
:104AF0008F1508F145E450E060E775E288810E9477
:104B0000D22C8C018FE495E2F801938382836BEFC2
:104B100070E38C810E94012DF80195878487FC0148
:104B2000858180FF0BC0F801F18ADF91CF911F9141
:104B30000F91FF90089582E20E94343881E20E9432
:104B40003438CF93DF93EC0145969F938F938A89F6
:104B50001F928F938F858F938E858F931F926F9364
:104B600082E59EE09F938F930E9475331A8A8E850B
:104B70009F8501969F878E878DB79EB70A960FB641
:104B8000F8949EBF0FBE8DBFDF91CF910895FF9225
:104B90000F931F93CF93DF938C01FC01F08060E7AC
:104BA00075E28F2D0E94012DEC010E947D35188A3F
:104BB000F80180859185A285B385892B8A2B8B2B63
:104BC00001F58A89811118C08F858F938E858F9307
:104BD0001F92FF9287E59EE09F938F930E9475330B
:104BE0000F900F900F900F900F900F90DF91CF913B
:104BF0001F910F91FF9008956F2DCE010E94A12566
:104C0000E3CFF80184819581A681B7818C839D8350
:104C1000AE83BF8380859185A285B3858887998778
:104C2000AA87BB871F861E861A8A84858B8BCE0136
:104C3000DF91CF911F910F91FF900C94CF3549E1F7
:104C400050E06FE176E2FC0180810E94D22C2AE2E2
:104C50003AE2FC013383228325E43AE23387228758
:104C60000895CF93DF93DC0114969C911497C0E0D4
:104C7000D0E0FE01ED5AFC4FE4919E1739F02196E9
:104C8000C830D105B1F78CE20E94343887E98093AF
:104C90007A0030917E0081E090E00C2E01C0880FF8
:104CA0000A94EAF7832B80937E004FE150E061E3A2
:104CB00076E28C910E94D22CFC0187E696E29383E7
:104CC0008283C28F81E0858FDF91CF910895FC01AF
:104CD00080917A0086FF0EC084819581A681B7817C
:104CE0008853984FAF4FBF4F84839583A683B78374
:104CF00081E00895828D90910801981761F09F3F9F
:104D000059F7809308018770806480937C0087ED59
:104D100080937A00E1CF8FEF809308012091780093
:104D200030917900858D968D891780F54489558954
:104D3000240F351F8F5F358B248B858F891760F18A
:104D40008689978928173907C8F1808D918D821738
:104D50009307A0F1138E1092260181E080934E01FB
:104D6000408951896289738980859185A285B3853F
:104D7000840F951FA61FB71F808B918BA28BB38BBF
:104D800084839583A683B78381E0089581E0358B82
:104D9000248B858F8917A0F64481558166817781A0
:104DA00084859585A685B785840F951FA61FB71F97
:104DB00084839583A683B78381E00895838D8F5F75
:104DC000838F948D891738F2809127018111C2CF8A
:104DD0008AE10E943438EF92FF920F931F93CF9392
:104DE000DF938C016FE176E2FC0180810E94012D4E
:104DF000EC01F8948E8980FF13C07E01F8E0EF0E7D
:104E0000F11CC7010E947D35F80184819581A6813E
:104E1000B7818C879D87AE87BF87C7010E94CF353A
:104E20007894DF91CF911F910F91FF90EF900895AB
:104E30001F93CF93DF93EC01162FAC89BD89109798
:104E4000B9F01296ED91FC9113978D919C91119769
:104E50009D8B8C8B11961C921E9213961C921E9207
:104E60001297612FCD010995AC89BD89109749F73B
:104E70001092260181E080934D01DF91CF911F9127
:104E80000895EF92FF921F93CF93DF937C01FC0173
:104E900010816FE176E2812F0E94012DEC01F894E0
:104EA0008E8980FF09C0F70164816F8B8A7F8460DF
:104EB0008E8BCE010E941827CE010E947D35CE0137
:104EC00008960E947D351E8A8F8978941F921F92C2
:104ED0001F921F921F928F931F921F921F921F93D8
:104EE0008FE79EE09F938F930E9475338DB79EB797
:104EF0000C960FB6F8949EBF0FBE8DBFDF91CF9179
:104F00001F91FF90EF900895CF93DF93EC010E94E3
:104F10007D35CE0108960E947D35EC89FD8930975C
:104F200051F0908181811382128211821082E92FC7
:104F3000F82F3097B1F71D8A1C8A188E1F8A1E8A97
:104F4000DF91CF9108950F931F93CF93DF938C013F
:104F50006FE176E2FC0180810E94012DEC01F89462
:104F60000E94842781E08E8BF80184819581A6813F
:104F7000B7818C839D83AE83BF8380859185A28515
:104F8000B385888B998BAA8BBB8B892B8A2B8B2B18
:104F900019F0CE010E94CF35F8018485888F78946E
:104FA000DF91CF911F910F910895B0990FC080911B
:104FB0005001909151010196109205011092040147
:104FC000909307018093060181E0089581E086BBFC
:104FD00080915001909151010196909351018093DD
:104FE000500120E030E830930501209304019093B4
:104FF00007018093060181E00895CF93DF93FC01C0
:1050000084819581A681B78144895589668977898C
:10501000C58DD68D3881C42FC170278D232331E0F3
:1050200009F430E0C31761F04F5F5F4F6F4F7F4F60
:10503000448B558B668B778B808F918FA28FB38F2C
:105040004089518962897389272F481759076A0750
:105050002B0B27FF18C0248D2160248F4485558594
:1050600066857785840F951FA61FB71F808B918B50
:10507000A28BB38B1092260181E080934F01848133
:105080009581A681B7814085518562857385840F9E
:10509000951FA61FB71F84839583A683B78381E0DE
:1050A000DF91CF9108950F931F93CF93DF938C01DE
:1050B00065E878E2FC0180810E94012DEC010E94EC
:1050C0007D35F80184819581A681B7818C839D838C
:1050D000AE83BF8340855185628573854887598734
:1050E0006A877B8744855585668577854C875D878C
:1050F0006E877F87888B998BAA8BBB8BCE01DF91C4
:10510000CF911F910F910C94CF350F931F93CF9395
:10511000DF93EC0140E250E065E878E288810E948C
:10512000D22C8C0168858C810E946C1DF801658FE2
:10513000768F878F8DEF97E293838283DF91CF9174
:105140001F910F910895803278F5E82FE695E69546
:10515000E695F0E0EE0FFF1FEE55F24FA591B491EA
:10516000109711F1877021E030E0A90102C0440FCF
:10517000551F8A95E2F7CA013FB7F89412962C9111
:10518000129761110FC04095242312962C93129709
:1051900011962C911197282B11962C9311973FBFA4
:1051A000BD010895242BF1CF8BE20E9434381F9269
:1051B0000F920FB60F9211240BB60F92EF92FF923F
:1051C0000F931F932F933F934F935F936F937F930F
:1051D0008F939F93AF93BF93CF93DF93EF93FF93FF
:1051E0000DC07A0180918400909185008E199F09ED
:1051F00097FD7CC07894B2999AC0F894C09122012E
:10520000D0912301EA81FB81309709F0ADC0EA8D8E
:10521000FB8D2C8D20838E859F85019709F4C1C05D
:105220009F878E8788859985AA85BB854C815D81FE
:105230006E817F81480F591F6A1F7B1F4C835D83DE
:105240006E837F8320832CA525FF0EC00C851D85D2
:10525000012E000C220B330B800F911FA21FB31FD6
:1052600088879987AA87BB87E881F981048115819E
:1052700026813781872F401751076207830B87FDEF
:10528000B0CF7801F0932301E0932201A091240193
:10529000B091250114960D911D912D913C91179778
:1052A000872F401751076207830B87FFFD01DF013E
:1052B0000190F081E02D0481158126813781872FAF
:1052C000401751076207830B87FFF1CFF983E8830B
:1052D000CD93DC93D0932501C09324018091840069
:1052E000909185008E199F0997FF84CF863A9F4F32
:1052F0000CF06AC0F0928900E0928800FF91EF9173
:10530000DF91CF91BF91AF919F918F917F916F91DD
:105310005F914F913F912F911F910F91FF90EF90CF
:105320000F900BBE0F900FBE0F901F901895F89422
:1053300080918400909185009701281B390B2038BB
:10534000314CDCF12091260127FF43C09C01205CF9
:10535000304E30938B0020938A0024E026BB90933C
:105360008900809388003ECFCE0109954C815D81F4
:105370006E817F81811178CFE881F981E480F580A9
:10538000F0932301E0932201809124019091250163
:10539000C817D90709F026CFF0932501E09324011F
:1053A00021CFCE010E946C15EA8DFB8D9C8D9083E0
:1053B0004C815D816E817F81DDCF2091270121119C
:1053C000C1CF89E20E9434387894B299B0CFF89472
:1053D00009CF9C012854344F30938B0020938A00CE
:1053E00024E026BB7C01F39485CF2FB7F89460911D
:1053F0008400709185008091500190915101B09985
:1054000002C02FBF08952FBF7F3FE1F3019608959B
:1054100078940E944D362FEF260F6623C1F0FC01D1
:105420008FEF9FEF31918327082E8295807F802513
:10543000092E982F82958F700826869598278927A0
:10544000880F880F880F8025215060F708958FEF0F
:105450009FEF0895FC0186898460868B1092260157
:1054600081E080934D0144815581668177818089F7
:105470009189A289B389840F951FA61FB71F8483C2
:105480009583A683B78381E00895FC0138979689B8
:1054900090FF08C0608D678B9A7F9460968BCF01D8
:1054A0000E94182780E00895FC01A085B1859C9199
:1054B00082858923D1F0818D80958170C9F4838D97
:1054C000815031F1838F4481558166817781878551
:1054D0009089A189B289840F951FA61FB71F848365
:1054E0009583A683B78381E00895818D817039F318
:1054F0008FE99AE29383828383899489A589B68907
:1055000084839583A683B783828D838F81E00895FA
:10551000A789B08D56969C915697892F817090FFE0
:10552000E3CF648D57966C9357979A7F9460569605
:105530009C935697CD010E94182780E008950F9301
:105540001F93FC01A085B1859C9104811581268162
:1055500037814385548565857685400F511F621FCD
:10556000731F8285892361F0818D8095817059F048
:10557000448355836683778381E01F910F9108955B
:10558000818D8170A9F7438B548B658B768B84E575
:105590009AE293838283CF011F910F910C94542A36
:1055A000CF93FC01C08162E47BE28C2F0E94012D2D
:1055B000FC01F894818D33894489558966897894F2
:1055C000A085B1852C919285922321E009F420E0F9
:1055D0001F922F936F935F934F933F9386958170A4
:1055E0001F928F931F92CF9384E89EE09F938F9397
:1055F0000E9475338DB79EB70C960FB6F8949EBF78
:105600000FBE8DBFCF910895CF93FC01C08167ED90
:1056100078E18C2F0E94012DFC01F89480A191A1CA
:10562000A2A1B3A124A5468557856089718924FD6F
:1056300004C07695679557954795841B950BA60BE7
:10564000B70BB7FF07C0B095A095909581959F4F78
:10565000AF4FBF4F7894B054BF93AF939F938F9346
:105660001F92CF9389E89EE09F938F930E9475339A
:105670008DB79EB708960FB6F8949EBF0FBE8DBF2C
:10568000CF9108950F931F93CF93DF93EC014DE1DA
:1056900050E062E47BE288810E94D22C8C01688514
:1056A0008C810E946C1DF801608771878287DF9171
:1056B000CF911F910F9108950F931F93CF93DF9375
:1056C0008C0162E47BE2FC0180810E94012DEC01EF
:1056D0000E947D35F80184819581A681B7818C83F4
:1056E0009D83AE83BF8380859185A285B3858F8797
:1056F000988BA98BBA8B84858A8F882361F1F801F6
:1057000040895189628973894B875C876D877E8761
:105710002FE93AE23B832A838B8F84899589A68976
:10572000B789892B8A2B8B2BA1F482E0898F6FE1BB
:1057300076E2F801808D0E94012D988F8F8BF80101
:10574000848D8C8FCE01DF91CF911F910F910C949E
:10575000CF3583E0EBCF188E1F8A198EDF91CF9162
:105760001F910F9108950F931F93CF93DF938C0197
:10577000EC01A897CE010E947D351C821D821E82FD
:105780001F821A8A1B8A1C8A1D8A88A199A1AAA134
:10579000BBA12CA54E855F856889798924FD04C04D
:1057A0007695679557954795841B950BA60BB70B78
:1057B000B7FD40C0B095A095909581959F4FAF4F94
:1057C000BF4F88A399A3AAA3BBA31E861F86188ACE
:1057D000198A247128602CA76D8D7E8D8F8D40E0F5
:1057E0000E94A51D4CA544706A8D7B8D8C8D0E94F6
:1057F000A51DD8011497ED91FC9111973097A9F050
:10580000409148019091490101C0F9012081318105
:1058100040839183F0934901E09348014E2F9F2FDD
:105820002115310591F71D921C92DF91CF911F91A7
:105830000F910895B095A095909581959F4FAF4F8A
:10584000BF4FB8CF0F931F93CF93DF938C0167EDBA
:1058500078E1FC0180810E94012DEC016FE176E28C
:10586000F80184810E94012DBE01685D7F4F4FB712
:10587000F8942AA53BA5232B89F423EB3BE23BA715
:105880002AA7FC012489358939A728A7758B648B41
:105890004FBFDF91CF911F910F91089589E10E9431
:1058A0003438DC012C911496ED91FC9115973FB79B
:1058B000F8942130E9F02230B1F0808190E0A0E04E
:1058C000B0E03FBFBF93AF939F938F938EE89EE06E
:1058D0009F938F930E9475330F900F900F900F90AE
:1058E0000F900F90089580819181A281B381E9CFBB
:1058F00080819181A0E0B0E0E4CFCF92DF92EF927F
:10590000FF92FC0140815181628173812481EEE923
:10591000FDE085919591A591B491481759076A07C3
:105920007B0770F56A017B01C20ED11CE11CF11CE2
:105930008C159D05AE05BF0500F5841B90E09A010E
:10594000255A3C4F3F932F939F938F937F936F9351
:105950005F934F938CEA9EE09F938F930E947533E1
:105960008DB79EB70A960FB6F8949EBF0FBE8DBF37
:10597000FF90EF90DF90CF900895822F90E0DFCFDF
:1059800080E090E0DCCF80912701882329F08230ED
:1059900011F010922701089582E00E9434388EE0C1
:1059A0000E943438CF93DF9390913A01891730F5F4
:1059B000C82FD0E0CC0FDD1FCC0FDD1FE0913B01E5
:1059C000F0913C01EC0FFD1F80819181892BB1F496
:1059D0008091420190914301892B81F4718360830E
:1059E000CA010E94523320913B0130913C01C20F09
:1059F000D31F9B838A83DF91CF9108958BE00E9410
:105A0000343890913A01891788F4E0913B01F09184
:105A10003C0194E0899FE00DF11D1124808191816A
:105A20008617970719F48281938108958CE00E946C
:105A30003438CF92DF92EF92FF92CF93DF93C091F1
:105A40004201D09143012097B9F121976E01E12CD9
:105A5000F12CA0914101B0E02097D9F020E030E096
:105A600040E050E0BA0180913F0190914001FC017B
:105A7000E20FF31F4F5F5F4F6F4F7F4F2A0F3B1FA8
:105A8000820F931F918380834C155D056E057F0502
:105A900050F380913F0190914001CA9FF001CB9F4C
:105AA000F00DDA9FF00D1124E80FF91F118210821A
:105AB0009093490180934801DF91CF91FF90EF903F
:105AC000DF90CF900895FC01138212821182108220
:105AD0006F3F710509F07CF4809142019091430180
